{
  "contractName": "SyedFaisalStudent",
  "abi": [
    {
      "inputs": [
        {
          "internalType": "int256",
          "name": "_rollno",
          "type": "int256"
        },
        {
          "internalType": "string",
          "name": "_name",
          "type": "string"
        },
        {
          "internalType": "bool",
          "name": "_isStudent",
          "type": "bool"
        }
      ],
      "name": "setUserInfo",
      "outputs": [],
      "stateMutability": "nonpayable",
      "type": "function"
    },
    {
      "inputs": [],
      "name": "getUserInfo",
      "outputs": [
        {
          "internalType": "int256",
          "name": "",
          "type": "int256"
        },
        {
          "internalType": "string",
          "name": "",
          "type": "string"
        },
        {
          "internalType": "bool",
          "name": "",
          "type": "bool"
        }
      ],
      "stateMutability": "view",
      "type": "function",
      "constant": true
    }
  ],
  "bytecode": "0x608060405234801561001057600080fd5b506104b5806100206000396000f3fe608060405234801561001057600080fd5b50600436106100365760003560e01c8063152e9bb71461003b5780635d8d158514610057575b600080fd5b61005560048036038101906100509190610279565b610077565b005b61005f6100b0565b60405161006e9392919061033c565b60405180910390f35b8360018190555082826000919061008f929190610162565b5080600260006101000a81548160ff02191690831515021790555050505050565b6000606060006001546000600260009054906101000a900460ff168180546100d7906103df565b80601f0160208091040260200160405190810160405280929190818152602001828054610103906103df565b80156101505780601f1061012557610100808354040283529160200191610150565b820191906000526020600020905b81548152906001019060200180831161013357829003601f168201915b50505050509150925092509250909192565b82805461016e906103df565b90600052602060002090601f01602090048101928261019057600085556101d7565b82601f106101a957803560ff19168380011785556101d7565b828001600101855582156101d7579182015b828111156101d65782358255916020019190600101906101bb565b5b5090506101e491906101e8565b5090565b5b808211156102015760008160009055506001016101e9565b5090565b60008135905061021481610451565b92915050565b60008135905061022981610468565b92915050565b60008083601f84011261024157600080fd5b8235905067ffffffffffffffff81111561025a57600080fd5b60208301915083600182028301111561027257600080fd5b9250929050565b6000806000806060858703121561028f57600080fd5b600061029d8782880161021a565b945050602085013567ffffffffffffffff8111156102ba57600080fd5b6102c68782880161022f565b935093505060406102d987828801610205565b91505092959194509250565b6102ee81610396565b82525050565b6102fd816103a2565b82525050565b600061030e8261037a565b6103188185610385565b93506103288185602086016103ac565b61033181610440565b840191505092915050565b600060608201905061035160008301866102f4565b81810360208301526103638185610303565b905061037260408301846102e5565b949350505050565b600081519050919050565b600082825260208201905092915050565b60008115159050919050565b6000819050919050565b60005b838110156103ca5780820151818401526020810190506103af565b838111156103d9576000848401525b50505050565b600060028204905060018216806103f757607f821691505b6020821081141561040b5761040a610411565b5b50919050565b7f4e487b7100000000000000000000000000000000000000000000000000000000600052602260045260246000fd5b6000601f19601f8301169050919050565b61045a81610396565b811461046557600080fd5b50565b610471816103a2565b811461047c57600080fd5b5056fea264697066735822122056cc1075966012641b50fcb121e74ff224858903c732d0ab8f42a48edde24c1264736f6c63430008010033",
  "immutableReferences": {},
  "source": "// SPDX-License-Identifier: MIT\r\npragma solidity >=0.4.22 <0.9.0;\r\ncontract SyedFaisalStudent \r\n{\r\n    string private name;\r\n    int private rollno;\r\n    bool private is_Student;\r\n    address private Owner;\r\n\r\n    function setUserInfo  (int _rollno,string calldata _name, bool _isStudent) public\r\n    {\r\n        rollno=_rollno;\r\n        name=_name;\r\n        is_Student=_isStudent;\r\n    }\r\n\r\n    function getUserInfo  () public view  returns (int ,string memory ,bool)\r\n    {\r\n          return (rollno,name,is_Student);\r\n    }\r\n\r\n\r\n}",
  "sourcePath": "D:\\Projects_Solidity\\Ganche_Assign\\contracts\\StudentSyedFaisal.sol",
  "compiler": {
    "name": "solc",
    "version": "0.8.1+commit.df193b15.Emscripten.clang"
  },
  "schemaVersion": "3.4.3",
  "updatedAt": "2021-10-16T07:00:13.113Z",
  "networkType": "ethereum",
  "devdoc": {
    "kind": "dev",
    "methods": {},
    "version": 1
  },
  "userdoc": {
    "kind": "user",
    "methods": {},
    "version": 1
  }
}